
ASSIST/I Version 2.03, Copyright 1984, BDM Software.                          GRADE RUN FOR:


                                                                                                                            PAGE 1
  LOC  OBJECT CODE    ADDR1 ADDR2   STMT    SOURCE STATEMENT

000000                                1 COLE5    START
                                      2 *
                                      3 *        JONATHON COLE MARLAR
                                      4 *        ASSIGNMENT #5
                                      5 *        4 APRIL 2014
                                      6 *
                                      7 *        INPUT:    A FILE CONTAINING AN UNKNOWN AMOUNT OF
                                      8 *                  TEXT IN THE ORDER:
                                      9 *                  FIRSTNAME MIDDLENAME LASTNAME
                                     10 *                  STREET ADDRESS
                                     11 *                  CITY
                                     12 *                  STATE INITIALS
                                     13 *                  ZIP CODE (5 DIGITS)
                                     14 *        EXECUTED: WILL ORGANIZE DATA USING STRING MANIPULATION
                                     15 *                  TO CREATE THE OUTPUT
                                     16 *        OUTPUT:   THE DATA IN THE FORM:
                                     17 *                  LASTNAME, FIRSTNAME M(IDDLE INITIAL)
                                     18 *                  STREET ADDRESS
                                     19 *                  CITY, STATE ZIP
                                     20 *
                                     21 *        BEGINNING HOUSEKEEPING
000000 90EC D00C            0000C    22          STM   14,12,12(13)
000004 05C0                          23          BALR  12,0
000006                               24          USING HERE,12
000006 50D0 C03E            00044    25 HERE     ST    13,SAVEAREA+4
00000A 41D0 C03A            00040    26          LA    13,SAVEAREA
                                     27 *
                                     28 *        MAIN PROGRAM
                                     29 *
                                     30 *        REG KEY:
                                     31 *        11 : USED TO CALL SUBROUTINES
00000E E000 C083 0032 00089          32 MAINLOOP XREAD CARD,50
                                     33 *        END THE PROGRAM IF END OF FILE
000014 4740 C030            00036    34          BC    B'0100',ENDPROG
000018 45B0 C0F0            000F6    35          BAL   11,GETNAME
00001C E000 C083 0032 00089          36          XREAD CARD,50
000022 E020 C082 0033 00088          37          XPRNT PRNTCARD,51
000028 E000 C083 0032 00089          38          XREAD CARD,50
00002E 45B0 C192            00198    39          BAL   11,CITSTZIP
000032 47F0 C008            0000E    40          BC    B'1111',MAINLOOP
                                     41 *
                                     42 *        END HOUSEKEEPING
000036 58D0 C03E            00044    43 ENDPROG  L     13,SAVEAREA+4
00003A 98EC D00C            0000C    44          LM    14,12,12(13)
00003E 07FE                          45          BR    14
000040                               46 SAVEAREA DS    18F
                                     47 *
                                     48 *        DECLARE STORAGE AND CONSTANTS
000088 40                            49 PRNTCARD DC    C' '
000089                               50 CARD     DS    CL50
0000BB 60                            51 PRNTNAME DC    C'-'

                                                                                                                            PAGE 2
  LOC  OBJECT CODE    ADDR1 ADDR2   STMT    SOURCE STATEMENT

0000BC                               52 NAMECARD DS    CL50
0000EE                               53 STATE    DS    CL2
0000F0                               54 ZIP      DS    CL5
                                     55 *
                                     56 *        DEFINE SUBROUTINES
                                     57 *

                                                                                                                            PAGE 3
  LOC  OBJECT CODE    ADDR1 ADDR2   STMT    SOURCE STATEMENT


GETNAME SUBROUTINE                                                                                                          PAGE 4
  LOC  OBJECT CODE    ADDR1 ADDR2   STMT    SOURCE STATEMENT

                                     60 *        GETNAME
                                     61 *        PURPOSE:
                                     62 *        FROM CARD, RE-FORMATS IT FROM FIRSTNAME MIDDLE LASTNAME
                                     63 *        TO LASTNAME, FIRSTNAME MI AND PRINTS IT
                                     64 *
                                     65 *        REG KEY:
                                     66 *        2  : POINTS TO DATA IN CARD
                                     67 *        3  : POINTS TO DATA IN NAMECARD (WHERE THE NEW FORMATTED
                                     68 *             NAME IS STORED)
                                     69 *        4  : COUNTER TO LOOP THROUGH FINDING A SPACE
                                     70 *        5  : COUNTER THAT, COMPARED TO 1 TO CHANGE THE CC, WILL
                                     71 *             HELP CALCULATE WHAT DATA WE'RE DEALING WITH (FIRST,
                                     72 *             MIDDLE, OR LAST)
                                     73 *
0000F6 4120 C083            00089    74 GETNAME  LA    2,CARD
0000FA 4130 C0B6            000BC    75          LA    3,NAMECARD
0000FE 4140 0002            00002    76          LA    4,2
000102 1B55                          77          SR    5,5
                                     78 *        CASCADE A BLANK FOR NAMECARD
000104 9240 C0B6      000BC          79          MVI   NAMECARD,C' '
000108 D230 C0B7 C0B6 000BD 000BC    80          MVC   NAMECARD+1(49),NAMECARD
                                     81 *        FIND THE BLANK
00010E 4122 0001            00001    82 SEARCHBL LA    2,1(2)
000112 9540 2000      00000          83          CLI   0(2),C' '
000116 4780 C118            0011E    84          BC    B'1000',MATCH
00011A 47F0 C108            0010E    85          BC    B'1111',SEARCHBL
00011E 0640                          86 MATCH    BCTR  4,0
                                     87 *        KEEP LOOKING IF TRYING TO FIND LAST NAME
000120 5940 C1CA            001D0    88          C     4,=F'0'
000124 4720 C108            0010E    89          BC    B'0010',SEARCHBL
000128 5950 C1CE            001D4    90          C     5,=F'1'
00012C 4780 C16C            00172    91          BC    B'1000',FIRST
000130 4720 C178            0017E    92          BC    B'0010',MIDDLE
                                     93 *        IF WE FOUND THE LAST NAME, INCREMENT BY ONE
000134 4122 0001            00001    94          LA    2,1(2)
                                     95 *        THE MAIN LOOP TO INSERT A NAME
000138 D200 3000 2000 00000 00000    96 INSRTNM  MVC   0(1,3),0(2)
00013E 4122 0001            00001    97          LA    2,1(2)
000142 4133 0001            00001    98          LA    3,1(3)
000146 9540 2000      00000          99          CLI   0(2),C' '
00014A 4770 C132            00138   100          BC    B'0111',INSRTNM
                                    101 *        IF WE'RE DEALING WITH THE LAST NAME, THEN PRINT A COMMA
00014E 5950 C1CE            001D4   102          C     5,=F'1'
000152 47B0 C158            0015E   103          BC    B'1011',PRTSPACE
000156 926B 3000      00000         104          MVI   0(3),C','
00015A 4133 0001            00001   105          LA    3,1(3)
00015E 9240 3000      00000         106 PRTSPACE MVI   0(3),C' '
000162 4133 0001            00001   107          LA    3,1(3)
                                    108 *        RESET REGISTER 2 TO POINT TO CARD
000166 4120 C083            00089   109          LA    2,CARD
                                    110 *        REG 5 NEEDS TO CHANGE TO KNOW WHAT NAME WE ARE GETTING
00016A 4155 0001            00001   111          LA    5,1(5)
00016E 47F0 C108            0010E   112          BC    B'1111',SEARCHBL

GETNAME SUBROUTINE                                                                                                          PAGE 5
  LOC  OBJECT CODE    ADDR1 ADDR2   STMT    SOURCE STATEMENT

000172 4120 C083            00089   113 FIRST    LA    2,CARD
000176 4140 0001            00001   114          LA    4,1
00017A 47F0 C132            00138   115          BC    B'1111',INSRTNM
                                    116 *        MIDDLE WILL BE THE LAST THING THIS SUBROUTINE WILL DO
00017E 4122 0001            00001   117 MIDDLE   LA    2,1(2)
000182 D200 3000 2000 00000 00000   118          MVC   0(1,3),0(2)
000188 4133 0001            00001   119          LA    3,1(3)
00018C 924B 3000      00000         120          MVI   0(3),C'.'
000190 E020 C0B5 0033 000BB         121          XPRNT PRNTNAME,51
000196 07FB                         122          BR    11
                                    123 *

GETNAME SUBROUTINE                                                                                                          PAGE 6
  LOC  OBJECT CODE    ADDR1 ADDR2   STMT    SOURCE STATEMENT


CITSTZIP SUBROUTINE                                                                                                         PAGE 7
  LOC  OBJECT CODE    ADDR1 ADDR2   STMT    SOURCE STATEMENT

                                    126 *        CITSTZIP
                                    127 *        PURPOSE:
                                    128 *        PLACES CITY, STATE, AND ZIPCODE FROM THREE DIFFERENT
                                    129 *        LINES INTO ONE LINE TO PRINT OUT
                                    130 *
                                    131 *        REG KEY:
                                    132 *        2  : POINTS TO DATA IN CARD
                                    133 *
000198 4120 C0B4            000BA   134 CITSTZIP LA    2,CARD+49
                                    135 *        GO BACKWARDS TO FIND CITY
00019C 9540 2000      00000         136 CHECKRT  CLI   0(2),C' '
0001A0 4720 C1A4            001AA   137          BC    B'0010',FOUNDRT
0001A4 0620                         138          BCTR  2,0
0001A6 47F0 C196            0019C   139          BC    B'1111',CHECKRT
0001AA 926B 2001      00001         140 FOUNDRT  MVI   1(2),C','
                                    141 *        GET STATE AND ZIP INFO
0001AE E000 C0E8 0002 000EE         142          XREAD STATE,2
0001B4 D201 2003 C0E8 00003 000EE   143          MVC   3(2,2),STATE
0001BA E000 C0EA 0005 000F0         144          XREAD ZIP,5
0001C0 D204 2007 C0EA 00007 000F0   145          MVC   7(5,2),ZIP
0001C6 E020 C082 0032 00088         146          XPRNT CARD-1,50
0001CC 07FB                         147          BR    11
                                    148 *
                                    149          END   COLE5
0001D0 00000000                                  =F'0'
0001D4 00000001                                  =F'1'

***   0 STATEMENTS FLAGGED - 0 WARNINGS, 0 ERRORS

*** PROGRAM EXECUTION BEGINNING -
ANY OUTPUT BEFORE EXECUTION COMPLETE MESSAGE IS PRODUCED BY USER PROGRAM ***


MARLAR, JONATHON C.
5779 HIGHWAY 17
FLORENCE, AL  35633


DVORSKA, ALLAN I.
18 KELLER STREET
GREENVILE, WY  39056


HANSON, JACKSON D.
190 LEONARD ROAD
LOS ANGELES, CA  90210


WOODS, JAMES H.
2239 PO BOX 49
VERNAL, UT  84078


STALLMAN, RICHARD M.
123 FREEDOM STREET
NEW YORK CITY, NY  10040

*** EXECUTION COMPLETED ***
